:200000000EC026C025C078C023C022C021C020C01FC01EC01DC01CC01BC01AC019C0112450
:200020001FBECFEDCDBF10E0A0E6B0E0E4EBF7E002C005900D92A036B107D9F710E0A0E625
:20004000B0E001C01D92A938B107E1F7AAD2B0C3D7CF81E087BBB99A83EC8ABD83E083BF49
:2000600085E580BF089582E880BF8AEF8DBD89B7806489BF0895FC01DB018AEF8C931196AD
:200080001C92119782E3808388E390E09283818382E083830895FC0181818F5F81839181A6
:2000A00080819813089511820895CF93DF930F92CDB7DEB7FC0169838981882399F0908101
:2000C0008981981721F00F90DF91CF910895A181B2819C918381809589238C930F90DF91D5
:2000E000CF910895A181B2818C919381892B8C930F90DF91CF9108951F920F920FB60F92E6
:2001000011248F939F93EF93FF9380916B008F5F80936B0080916B00803109F440C08FB5EC
:2001200080936E00809170008F5F809370009091700080916F00981711F410927000809164
:200140007000882311F190917100981799F08FB580936D0080916D0090916E00891B809330
:200160006400FF91EF919F918F910F900FBE0F901F901895E0917200F0917300908180915B
:200180007400809589238083E2CFE0917200F0917300808190917400892B8083D8CF80919A
:2001A0006500909166000196909366008093650010926B00B4CF8091650090916600089591
:2001C0002091650030916600280F391F8091650090916600821B930B18161906BCF708957E
:2001E0000F931F93CF93DF93FC0100811181C281D38189E790E0A0D0DC01CB01BE01601BFD
:20020000710BC2D2800F911FDF91CF911F910F910895813019F182E390E090937600809396
:2002200075008FEF90E0909378008093770086E090E0909361008093600020EC30E030938A
:2002400063002093620021E030E0309368002093670090936A008093690008958AE090E050
:2002600090937600809375008FEF90E0909378008093770086E090E090936100809360007D
:2002800080EC90E09093630080936200109268001092670083E090E090936A008093690098
:2002A00008954091650050916600480F591F2091650030916600241B350B12161306BCF7A5
:2002C0006B3F28F020916C002F5F20936C0029B5261790F429B52F5F29BD309171002091BE
:2002E0006F00321728F4209171002F5F2093710029B52617B1F6089529B5215029BD209111
:2003000071002223A9F32091710021502093710029B5261731F6EFCF209165003091660097
:20032000280F391F8091650090916600821B930B18161906BCF708958F929F92AF92BF9275
:20034000CF92DF92EF92FF920F931F93FC01C480D580E680F780D701C6012BE1880F991FF8
:20036000AA1FBB1F2A95D1F7B701A60135E076956795579547953A95D1F7842B952BA62B39
:20038000B72B80809180A280B380881A990AAA0ABB0A0085118522853385D901C801072E05
:2003A00071E1880F991FAA1FBB1F7A95D1F7702DB901A801032E3FE0769567955795479503
:2003C0003A95D1F7302D842B952BA62BB72B8C259D25AE25BF2580839183A283B3834485A2
:2003E000558566857785040F151F261F371F0483158326833783480D591D6A1D7B1D408727
:20040000518762877387880E991EAA1EBB1E84869586A686B786B401C5011F910F91FF904B
:20042000EF90DF90CF90BF90AF909F908F9008952F923F924F925F926F927F928F929F922E
:20044000AF92BF92CF92DF92EF92FF920F931F93CF93DF93CDB7DEB7C650CDBF9E838D8312
:200460006A017B01DC0118964D935D936D937C931B9749835A836B837C832A013B014A0131
:200480005B01E0E0F0E00DEE1EE52AEE31EF1F0104C089809A80AB80BC80D701C60145E008
:2004A000B695A795979587954A95D1F7B701A601EBE1440F551F661F771FEA95D1F7842BC3
:2004C000952BA62BB72BB901A801481B590B6A0B7B0B95018401FFE03695279517950795BB
:2004E000FA95D1F7D501C401E1E1880F991FAA1FBB1FEA95D1F7082B192B2A2B3B2B0C25AC
:200500001D252E253F25C980DA80EB80FC80C40CD51CE61CF71CDB01CA01840D951DA61DD5
:20052000B71D89839A83AB83BC8328013901440E551E661E771E0894211C311C94E1291636
:20054000310409F0A6CFAD81BE810D931D932D933C93139789819A81AB81BC81ED81FE8187
:2005600080879187A287B387C482D582E682F7824486558666867786CA5FCDBFDF91CF9168
:200580001F910F91FF90EF90DF90CF90BF90AF909F908F907F906F905F904F903F902F90E9
:2005A0000895F89481E087BBB99A83EC8ABD83E083BF85E580BF2AEF20936F0010927000CB
:2005C00082E38093710088E390E0909373008093720082E08093740082E880BF2DBD89B780
:2005E000806489BF89E790E040E050E0BA0120DF82E390E090937600809375008FEF90E001
:20060000909378008093770086E090E0909361008093600020EC30E0309363002093620091
:2006200021E030E0309368002093670090936A00809369007894E2E38E2E912CFFEF6F2E86
:20064000712CA6E0AA2EB12CB0EC4B2E512CC1E02C2E312CE0907500F0907600C091770035
:20066000D091780089E790E067DEDC01CB01BE016E197F0989D0182F1E0DC0906700D09023
:200680006800C0916900D0916A0089E790E054DEDC01CB01BE016C197D0976D07C01EC0C2D
:2006A000FD1CC0906000D0906100C0916200D091630089E790E040DEDC01CB01BE016C194E
:2006C0007D0962D0AC0190927600809275007092780060927700B0926100A092600050929C
:2006E0006300409262003092680020926700B0926A00A092690020916500309166002E0D61
:200700003F1D8091650090916600821B930B18161906BCF71B3F28F080916C008F5F809355
:200720006C0089B5811718F589B58F5F89BD9091710080916F00981728F4809171008F5FAB
:200740008093710089B51817B1F620916500309166002C0D3D1D240F351F80916500909113
:200760006600821B930B18161906BCF773CF89B5815089BD80917100882321F3809171007E
:20078000815080937100DECFAA1BBB1B51E107C0AA1FBB1FA617B70710F0A61BB70B881F7B
:1407A000991F5A95A9F780959095BC01CD010895F894FFCF42
:00000001FF
